{
  "contractName": "ExioToken",
  "abi": [
    {
      "constant": true,
      "inputs": [],
      "name": "totalSupply",
      "outputs": [
        {
          "name": "",
          "type": "uint256"
        }
      ],
      "payable": false,
      "stateMutability": "view",
      "type": "function",
      "signature": "0x18160ddd"
    },
    {
      "inputs": [],
      "payable": false,
      "stateMutability": "nonpayable",
      "type": "constructor",
      "signature": "constructor"
    }
  ],
  "bytecode": "0x608060405234801561001057600080fd5b50620bde31600081905550609e806100296000396000f3fe608060405260043610603f576000357c0100000000000000000000000000000000000000000000000000000000900463ffffffff16806318160ddd146044575b600080fd5b348015604f57600080fd5b506056606c565b6040518082815260200191505060405180910390f35b6000548156fea165627a7a723058205a14488f0a2dd8bc95f9c23b9c1bf99c6980eb83866c681334d7c27e81fd75280029",
  "source": "pragma solidity ^0.5.0;\n\ncontract ExioToken {\n  // Constructor\n  // Set the total number of tokens\n  //Read the total number of tokens\n  uint256 public totalSupply;\n\n  constructor() public {\n    totalSupply = 777777;\n  }\n}\n",
  "sourcePath": "/home/nalbandyan/Ethereum/token-sale/contracts/ExioToken.sol",
  "compiler": {
    "name": "solc",
    "version": "0.5.0+commit.1d4f565a.Emscripten.clang"
  },
  "schemaVersion": "3.0.1",
  "updatedAt": "2019-01-08T09:12:48.180Z",
  "devdoc": {
    "methods": {}
  },
  "userdoc": {
    "methods": {}
  }
}