{
  "contractName": "ExioTokenSale",
  "abi": [
    {
      "constant": true,
      "inputs": [],
      "name": "tokensForSold",
      "outputs": [
        {
          "name": "",
          "type": "uint256"
        }
      ],
      "payable": false,
      "stateMutability": "view",
      "type": "function",
      "signature": "0x1d6576f1"
    },
    {
      "constant": true,
      "inputs": [],
      "name": "isOpen",
      "outputs": [
        {
          "name": "",
          "type": "bool"
        }
      ],
      "payable": false,
      "stateMutability": "view",
      "type": "function",
      "signature": "0x47535d7b"
    },
    {
      "constant": true,
      "inputs": [],
      "name": "tokensSold",
      "outputs": [
        {
          "name": "",
          "type": "uint256"
        }
      ],
      "payable": false,
      "stateMutability": "view",
      "type": "function",
      "signature": "0x518ab2a8"
    },
    {
      "constant": true,
      "inputs": [],
      "name": "tokenContract",
      "outputs": [
        {
          "name": "",
          "type": "address"
        }
      ],
      "payable": false,
      "stateMutability": "view",
      "type": "function",
      "signature": "0x55a373d6"
    },
    {
      "constant": true,
      "inputs": [],
      "name": "tokenPrice",
      "outputs": [
        {
          "name": "",
          "type": "uint256"
        }
      ],
      "payable": false,
      "stateMutability": "view",
      "type": "function",
      "signature": "0x7ff9b596"
    },
    {
      "inputs": [
        {
          "name": "_tokenContract",
          "type": "address"
        },
        {
          "name": "_tokenPrice",
          "type": "uint256"
        }
      ],
      "payable": false,
      "stateMutability": "nonpayable",
      "type": "constructor",
      "signature": "constructor"
    },
    {
      "anonymous": false,
      "inputs": [
        {
          "indexed": false,
          "name": "_buyer",
          "type": "address"
        },
        {
          "indexed": false,
          "name": "_amount",
          "type": "uint256"
        }
      ],
      "name": "Sell",
      "type": "event",
      "signature": "0x5e5e995ce3133561afceaa51a9a154d5db228cd7525d34df5185582c18d3df09"
    },
    {
      "anonymous": false,
      "inputs": [
        {
          "indexed": false,
          "name": "_admin",
          "type": "address"
        },
        {
          "indexed": false,
          "name": "_numberOfTokens",
          "type": "uint256"
        }
      ],
      "name": "openSell",
      "type": "event",
      "signature": "0x163c97a726d97f89816dbf57f59614296afc0c6529bd19980b9d7f3055c5b085"
    },
    {
      "anonymous": false,
      "inputs": [
        {
          "indexed": false,
          "name": "_admin",
          "type": "address"
        },
        {
          "indexed": false,
          "name": "_numberOfTokens",
          "type": "uint256"
        }
      ],
      "name": "closeSell",
      "type": "event",
      "signature": "0x0a07eb866a56e585203f5348ac0cfeeb36e4d5e5e801bfbd732cf2282230c336"
    },
    {
      "constant": false,
      "inputs": [
        {
          "name": "_numberOfTokens",
          "type": "uint256"
        }
      ],
      "name": "buyTokens",
      "outputs": [],
      "payable": true,
      "stateMutability": "payable",
      "type": "function",
      "signature": "0x3610724e"
    },
    {
      "constant": false,
      "inputs": [
        {
          "name": "_numberOfTokens",
          "type": "uint256"
        }
      ],
      "name": "openSale",
      "outputs": [],
      "payable": false,
      "stateMutability": "nonpayable",
      "type": "function",
      "signature": "0x34ec740a"
    },
    {
      "constant": false,
      "inputs": [],
      "name": "closeSale",
      "outputs": [],
      "payable": false,
      "stateMutability": "nonpayable",
      "type": "function",
      "signature": "0xee55efee"
    },
    {
      "constant": false,
      "inputs": [],
      "name": "endSale",
      "outputs": [],
      "payable": false,
      "stateMutability": "nonpayable",
      "type": "function",
      "signature": "0x380d831b"
    }
  ],
  "bytecode": "0x608060405234801561001057600080fd5b50604051604080610cc28339810180604052604081101561003057600080fd5b810190808051906020019092919080519060200190929190505050336000806101000a81548173ffffffffffffffffffffffffffffffffffffffff021916908373ffffffffffffffffffffffffffffffffffffffff16021790555081600160006101000a81548173ffffffffffffffffffffffffffffffffffffffff021916908373ffffffffffffffffffffffffffffffffffffffff160217905550806002819055506000600560006101000a81548160ff0219169083151502179055505050610bc3806100ff6000396000f3fe608060405260043610610099576000357c0100000000000000000000000000000000000000000000000000000000900463ffffffff1680631d6576f11461009e57806334ec740a146100c95780633610724e14610104578063380d831b1461013257806347535d7b14610149578063518ab2a81461017857806355a373d6146101a35780637ff9b596146101fa578063ee55efee14610225575b600080fd5b3480156100aa57600080fd5b506100b361023c565b6040518082815260200191505060405180910390f35b3480156100d557600080fd5b50610102600480360360208110156100ec57600080fd5b8101908080359060200190929190505050610242565b005b6101306004803603602081101561011a57600080fd5b8101908080359060200190929190505050610474565b005b34801561013e57600080fd5b50610147610649565b005b34801561015557600080fd5b5061015e6108ff565b604051808215151515815260200191505060405180910390f35b34801561018457600080fd5b5061018d610912565b6040518082815260200191505060405180910390f35b3480156101af57600080fd5b506101b8610918565b604051808273ffffffffffffffffffffffffffffffffffffffff1673ffffffffffffffffffffffffffffffffffffffff16815260200191505060405180910390f35b34801561020657600080fd5b5061020f61093e565b6040518082815260200191505060405180910390f35b34801561023157600080fd5b5061023a610944565b005b60045481565b6000809054906101000a900473ffffffffffffffffffffffffffffffffffffffff1673ffffffffffffffffffffffffffffffffffffffff163373ffffffffffffffffffffffffffffffffffffffff1614151561029d57600080fd5b80600160009054906101000a900473ffffffffffffffffffffffffffffffffffffffff1673ffffffffffffffffffffffffffffffffffffffff166370a08231306040518263ffffffff167c0100000000000000000000000000000000000000000000000000000000028152600401808273ffffffffffffffffffffffffffffffffffffffff1673ffffffffffffffffffffffffffffffffffffffff16815260200191505060206040518083038186803b15801561035957600080fd5b505afa15801561036d573d6000803e3d6000fd5b505050506040513d602081101561038357600080fd5b8101908080519060200190929190505050101515156103a157600080fd5b60001515600560009054906101000a900460ff1615151415156103c357600080fd5b806004819055506001600560006101000a81548160ff0219169083151502179055507f163c97a726d97f89816dbf57f59614296afc0c6529bd19980b9d7f3055c5b0856000809054906101000a900473ffffffffffffffffffffffffffffffffffffffff1682604051808373ffffffffffffffffffffffffffffffffffffffff1673ffffffffffffffffffffffffffffffffffffffff1681526020018281526020019250505060405180910390a150565b60011515600560009054906101000a900460ff16151514151561049657600080fd5b6104a281600254610b67565b341415156104af57600080fd5b80600454101515156104c057600080fd5b600160009054906101000a900473ffffffffffffffffffffffffffffffffffffffff1673ffffffffffffffffffffffffffffffffffffffff1663a9059cbb33836040518363ffffffff167c0100000000000000000000000000000000000000000000000000000000028152600401808373ffffffffffffffffffffffffffffffffffffffff1673ffffffffffffffffffffffffffffffffffffffff16815260200182815260200192505050602060405180830381600087803b15801561058557600080fd5b505af1158015610599573d6000803e3d6000fd5b505050506040513d60208110156105af57600080fd5b810190808051906020019092919050505015156105cb57600080fd5b806003600082825401925050819055507f5e5e995ce3133561afceaa51a9a154d5db228cd7525d34df5185582c18d3df093382604051808373ffffffffffffffffffffffffffffffffffffffff1673ffffffffffffffffffffffffffffffffffffffff1681526020018281526020019250505060405180910390a150565b6000809054906101000a900473ffffffffffffffffffffffffffffffffffffffff1673ffffffffffffffffffffffffffffffffffffffff163373ffffffffffffffffffffffffffffffffffffffff161415156106a457600080fd5b600160009054906101000a900473ffffffffffffffffffffffffffffffffffffffff1673ffffffffffffffffffffffffffffffffffffffff1663a9059cbb6000809054906101000a900473ffffffffffffffffffffffffffffffffffffffff16600160009054906101000a900473ffffffffffffffffffffffffffffffffffffffff1673ffffffffffffffffffffffffffffffffffffffff166370a08231306040518263ffffffff167c0100000000000000000000000000000000000000000000000000000000028152600401808273ffffffffffffffffffffffffffffffffffffffff1673ffffffffffffffffffffffffffffffffffffffff16815260200191505060206040518083038186803b1580156107bf57600080fd5b505afa1580156107d3573d6000803e3d6000fd5b505050506040513d60208110156107e957600080fd5b81019080805190602001909291905050506040518363ffffffff167c0100000000000000000000000000000000000000000000000000000000028152600401808373ffffffffffffffffffffffffffffffffffffffff1673ffffffffffffffffffffffffffffffffffffffff16815260200182815260200192505050602060405180830381600087803b15801561087f57600080fd5b505af1158015610893573d6000803e3d6000fd5b505050506040513d60208110156108a957600080fd5b810190808051906020019092919050505015156108c557600080fd5b6000809054906101000a900473ffffffffffffffffffffffffffffffffffffffff1673ffffffffffffffffffffffffffffffffffffffff16ff5b600560009054906101000a900460ff1681565b60035481565b600160009054906101000a900473ffffffffffffffffffffffffffffffffffffffff1681565b60025481565b6000809054906101000a900473ffffffffffffffffffffffffffffffffffffffff1673ffffffffffffffffffffffffffffffffffffffff163373ffffffffffffffffffffffffffffffffffffffff1614151561099f57600080fd5b60011515600560009054906101000a900460ff1615151415156109c157600080fd5b6000600560006101000a81548160ff02191690831515021790555060006004819055507f0a07eb866a56e585203f5348ac0cfeeb36e4d5e5e801bfbd732cf2282230c3366000809054906101000a900473ffffffffffffffffffffffffffffffffffffffff16600160009054906101000a900473ffffffffffffffffffffffffffffffffffffffff1673ffffffffffffffffffffffffffffffffffffffff166370a08231306040518263ffffffff167c0100000000000000000000000000000000000000000000000000000000028152600401808273ffffffffffffffffffffffffffffffffffffffff1673ffffffffffffffffffffffffffffffffffffffff16815260200191505060206040518083038186803b158015610ae257600080fd5b505afa158015610af6573d6000803e3d6000fd5b505050506040513d6020811015610b0c57600080fd5b8101908080519060200190929190505050604051808373ffffffffffffffffffffffffffffffffffffffff1673ffffffffffffffffffffffffffffffffffffffff1681526020018281526020019250505060405180910390a1565b600080821480610b8657508282838502925082811515610b8357fe5b04145b1515610b9157600080fd5b9291505056fea165627a7a72305820aba4e0f49c7d9e1a44f6c6e458f5ee732e541ff39cc4bae363b6e8490347ffb80029",
  "source": "pragma solidity ^0.5.0;\n\nimport \"./ExioToken.sol\";\n\ncontract ExioTokenSale {\n  address payable admin;\n  ExioToken public tokenContract;\n  uint256 public tokenPrice;\n  uint256 public tokensSold;\n  uint256 public tokensForSold;\n  bool public isOpen;\n\n  event Sell(address _buyer, uint256 _amount);\n  event openSell(address _admin, uint256 _numberOfTokens);\n  event closeSell(address _admin, uint256 _numberOfTokens);\n\n  constructor(ExioToken _tokenContract, uint256 _tokenPrice) public {\n    admin = msg.sender;\n    tokenContract = _tokenContract;\n    tokenPrice = _tokenPrice;\n    isOpen = false;\n  }\n\n  function mulitply(uint x, uint y) internal pure returns (uint z) {\n        require(y == 0 || (z = x * y) / y == x);\n    }\n\n  function buyTokens(uint256 _numberOfTokens) public payable {\n    require(isOpen == true);\n    require(msg.value == mulitply(_numberOfTokens,  tokenPrice));\n    require(tokensForSold >= _numberOfTokens);\n    require(tokenContract.transfer(msg.sender, _numberOfTokens));\n\n    tokensSold += _numberOfTokens;\n    emit Sell(msg.sender, _numberOfTokens);\n  }\n\n  function openSale(uint256 _numberOfTokens) public {\n    require(msg.sender == admin);\n    require(tokenContract.balanceOf(address(this)) >= _numberOfTokens);\n    require(isOpen == false);\n\n    tokensForSold = _numberOfTokens;\n    isOpen = true;\n\n    emit openSell(admin, _numberOfTokens);\n  }\n\n  function closeSale() public {\n    require(msg.sender == admin);\n    require(isOpen == true);\n    // require(tokenContract.transfer(admin, tokenContract.balanceOf(address(this))));\n\n    isOpen = false;\n    tokensForSold = 0;\n\n    emit closeSell(admin, tokenContract.balanceOf(address(this)));\n  }\n\n  function endSale() public {\n    require(msg.sender == admin);\n    require(tokenContract.transfer(admin, tokenContract.balanceOf(address(this))));\n\n    selfdestruct(admin);\n  }\n}\n",
  "sourcePath": "/home/nalbandyan/Ethereum/token-sale/contracts/ExioTokenSale.sol",
  "compiler": {
    "name": "solc",
    "version": "0.5.0+commit.1d4f565a.Emscripten.clang"
  },
  "schemaVersion": "3.0.1",
  "updatedAt": "2019-01-11T07:18:39.488Z",
  "devdoc": {
    "methods": {}
  },
  "userdoc": {
    "methods": {}
  }
}